{
  "contractName": "Lottery",
  "abi": [
    {
      "inputs": [],
      "stateMutability": "nonpayable",
      "type": "constructor"
    },
    {
      "inputs": [
        {
          "internalType": "uint256",
          "name": "",
          "type": "uint256"
        }
      ],
      "name": "players",
      "outputs": [
        {
          "internalType": "address payable",
          "name": "",
          "type": "address"
        }
      ],
      "stateMutability": "view",
      "type": "function",
      "constant": true
    },
    {
      "inputs": [],
      "name": "winner",
      "outputs": [
        {
          "internalType": "address payable",
          "name": "",
          "type": "address"
        }
      ],
      "stateMutability": "view",
      "type": "function",
      "constant": true
    },
    {
      "stateMutability": "payable",
      "type": "receive",
      "payable": true
    },
    {
      "inputs": [],
      "name": "balance",
      "outputs": [
        {
          "internalType": "uint256",
          "name": "",
          "type": "uint256"
        }
      ],
      "stateMutability": "view",
      "type": "function",
      "constant": true
    },
    {
      "inputs": [],
      "name": "pickWinner",
      "outputs": [],
      "stateMutability": "nonpayable",
      "type": "function"
    },
    {
      "inputs": [],
      "name": "allPlayers",
      "outputs": [
        {
          "internalType": "address payable[]",
          "name": "",
          "type": "address[]"
        }
      ],
      "stateMutability": "view",
      "type": "function",
      "constant": true
    }
  ],
  "bytecode": "0x608060405234801561001057600080fd5b5033600160006101000a81548173ffffffffffffffffffffffffffffffffffffffff021916908373ffffffffffffffffffffffffffffffffffffffff160217905550610b09806100616000396000f3fe60806040526004361061004e5760003560e01c80635d495aea14610107578063b0ec80941461011e578063b69ef8a814610149578063dfbf53ae14610174578063f71d96cb1461019f57610102565b3661010257670de0b6b3a7640000341461009d576040517f08c379a0000000000000000000000000000000000000000000000000000000008152600401610094906106f1565b60405180910390fd5b6000339080600181540180825580915050600190039060005260206000200160009091909190916101000a81548173ffffffffffffffffffffffffffffffffffffffff021916908373ffffffffffffffffffffffffffffffffffffffff160217905550005b600080fd5b34801561011357600080fd5b5061011c6101dc565b005b34801561012a57600080fd5b50610133610428565b6040516101409190610801565b60405180910390f35b34801561015557600080fd5b5061015e6104b6565b60405161016b919061083c565b60405180910390f35b34801561018057600080fd5b5061018961054e565b6040516101969190610866565b60405180910390f35b3480156101ab57600080fd5b506101c660048036038101906101c191906108b2565b610574565b6040516101d39190610866565b60405180910390f35b600160009054906101000a900473ffffffffffffffffffffffffffffffffffffffff1673ffffffffffffffffffffffffffffffffffffffff163373ffffffffffffffffffffffffffffffffffffffff161461026c576040517f08c379a00000000000000000000000000000000000000000000000000000000081526004016102639061092b565b60405180910390fd5b600360008054905010156102b5576040517f08c379a00000000000000000000000000000000000000000000000000000000081526004016102ac90610997565b60405180910390fd5b60006102bf6105b3565b905060008080549050826102d391906109e6565b9050600081815481106102e9576102e8610a17565b5b9060005260206000200160009054906101000a900473ffffffffffffffffffffffffffffffffffffffff16600260006101000a81548173ffffffffffffffffffffffffffffffffffffffff021916908373ffffffffffffffffffffffffffffffffffffffff160217905550600260009054906101000a900473ffffffffffffffffffffffffffffffffffffffff1673ffffffffffffffffffffffffffffffffffffffff166108fc6103986104b6565b9081150290604051600060405180830381858888f193505050501580156103c3573d6000803e3d6000fd5b50600067ffffffffffffffff8111156103df576103de610a46565b5b60405190808252806020026020018201604052801561040d5781602001602082028036833780820191505090505b50600090805190602001906104239291906105ed565b505050565b606060008054806020026020016040519081016040528092919081815260200182805480156104ac57602002820191906000526020600020905b8160009054906101000a900473ffffffffffffffffffffffffffffffffffffffff1673ffffffffffffffffffffffffffffffffffffffff1681526020019060010190808311610462575b5050505050905090565b6000600160009054906101000a900473ffffffffffffffffffffffffffffffffffffffff1673ffffffffffffffffffffffffffffffffffffffff163373ffffffffffffffffffffffffffffffffffffffff1614610548576040517f08c379a000000000000000000000000000000000000000000000000000000000815260040161053f9061092b565b60405180910390fd5b47905090565b600260009054906101000a900473ffffffffffffffffffffffffffffffffffffffff1681565b6000818154811061058457600080fd5b906000526020600020016000915054906101000a900473ffffffffffffffffffffffffffffffffffffffff1681565b600044426000805490506040516020016105cf93929190610a96565b6040516020818303038152906040528051906020012060001c905090565b828054828255906000526020600020908101928215610666579160200282015b828111156106655782518260006101000a81548173ffffffffffffffffffffffffffffffffffffffff021916908373ffffffffffffffffffffffffffffffffffffffff1602179055509160200191906001019061060d565b5b5090506106739190610677565b5090565b5b80821115610690576000816000905550600101610678565b5090565b600082825260208201905092915050565b7f506c65617365207061792031206574686572206f6e6c79000000000000000000600082015250565b60006106db601783610694565b91506106e6826106a5565b602082019050919050565b6000602082019050818103600083015261070a816106ce565b9050919050565b600081519050919050565b600082825260208201905092915050565b6000819050602082019050919050565b600073ffffffffffffffffffffffffffffffffffffffff82169050919050565b60006107688261073d565b9050919050565b6107788161075d565b82525050565b600061078a838361076f565b60208301905092915050565b6000602082019050919050565b60006107ae82610711565b6107b8818561071c565b93506107c38361072d565b8060005b838110156107f45781516107db888261077e565b97506107e683610796565b9250506001810190506107c7565b5085935050505092915050565b6000602082019050818103600083015261081b81846107a3565b905092915050565b6000819050919050565b61083681610823565b82525050565b6000602082019050610851600083018461082d565b92915050565b6108608161075d565b82525050565b600060208201905061087b6000830184610857565b92915050565b600080fd5b61088f81610823565b811461089a57600080fd5b50565b6000813590506108ac81610886565b92915050565b6000602082840312156108c8576108c7610881565b5b60006108d68482850161089d565b91505092915050565b7f596f7520617265206e6f7420746865206d616e61676572000000000000000000600082015250565b6000610915601783610694565b9150610920826108df565b602082019050919050565b6000602082019050818103600083015261094481610908565b9050919050565b7f506c617965727320617265203c20330000000000000000000000000000000000600082015250565b6000610981600f83610694565b915061098c8261094b565b602082019050919050565b600060208201905081810360008301526109b081610974565b9050919050565b7f4e487b7100000000000000000000000000000000000000000000000000000000600052601260045260246000fd5b60006109f182610823565b91506109fc83610823565b925082610a0c57610a0b6109b7565b5b828206905092915050565b7f4e487b7100000000000000000000000000000000000000000000000000000000600052603260045260246000fd5b7f4e487b7100000000000000000000000000000000000000000000000000000000600052604160045260246000fd5b6000819050919050565b610a90610a8b82610823565b610a75565b82525050565b6000610aa28286610a7f565b602082019150610ab28285610a7f565b602082019150610ac28284610a7f565b60208201915081905094935050505056fea2646970667358221220acf8b6b7dbcc4db85695fe44ce0fb504eed3fe7e55f4f486fa3c86dbcb9b769064736f6c634300080b0033",
  "immutableReferences": {},
  "source": "// SPDX-License-Identifier: GPL-3.0\r\n\r\npragma solidity >=0.5.0 <0.9.0;\r\n\r\n//contractAddress = 0x8b6eEA13e5092073AfE2B04edDB68f3A13567324\r\n\r\ncontract Lottery {\r\n    address payable[] public players;\r\n    address manager;\r\n    address payable public winner;\r\n\r\n    constructor() {\r\n        manager = msg.sender;\r\n    }\r\n\r\n    receive() external payable {\r\n        require(msg.value == 1 ether, \"Please pay 1 ether only\");\r\n        players.push(payable(msg.sender));\r\n    }\r\n\r\n    function balance() public view returns (uint256) {\r\n        //to get the balance of the contract\r\n        require(msg.sender == manager, \"You are not the manager\");\r\n        return (address(this).balance);\r\n    }\r\n\r\n    function random() internal view returns (uint256) {\r\n        //generating random to pick the winner randomly\r\n        return\r\n            uint256(\r\n                keccak256(\r\n                    abi.encodePacked(\r\n                        block.difficulty,\r\n                        block.timestamp,\r\n                        players.length\r\n                    )\r\n                )\r\n            );\r\n    }\r\n\r\n    function pickWinner() public {\r\n        require(msg.sender == manager, \"You are not the manager\");\r\n        require(players.length >= 3, \"Players are < 3\");\r\n\r\n        uint256 random_ = random();\r\n        uint256 index = random_ % players.length; //remainder is always < players.length\r\n\r\n        winner = players[index];\r\n        winner.transfer(balance()); //transfering ethers to the winner\r\n\r\n        players = new address payable[](0); //making the array empty\r\n    }\r\n\r\n    function allPlayers() public view returns (address payable[] memory) {\r\n        return players;\r\n    }\r\n}\r\n",
  "sourcePath": "D:\\Dapp Projects\\Lottery Project\\web3lab\\contracts\\Lottery.sol",
  "compiler": {
    "name": "solc",
    "version": "0.8.11+commit.d7f03943.Emscripten.clang"
  },
  "schemaVersion": "3.4.8",
  "updatedAt": "2022-12-02T06:05:39.086Z",
  "networkType": "ethereum",
  "devdoc": {
    "kind": "dev",
    "methods": {},
    "version": 1
  },
  "userdoc": {
    "kind": "user",
    "methods": {},
    "version": 1
  }
}